:1000000005EF05F00000000000EF00F00000000028
:0A0010000000000000000000F3D71C
:08001C000AAE029E000E120064
:100024000B840BAE1DEF00F0010E036E026A016A31
:0A003400006A0A360232FF0E1200C5
:10003E000B820BAE29EF00F00368026801680068BE
:08004E000A360232FF0E120017
:0E005600026A016A006A086A036A000E12005C
:080064000B6A0B86FF0E12006F
:10006C000CB078EF00F00CA21EEF01F00E6A000E3F
:10007C0002648FEF00F0F00E0214D8A45AEF00F0D7
:10008C00023A01380F0B02260138F00B016E0038D2
:10009C000F0B01260038F00B006E08380F0B0026F2
:1000AC000838F00B086E0E84D89002BE73EF00F087
:1000BC0008360036013602360E2A02BE73EF00F007
:1000CC0008360036013602360E2A02BE73EF00F0F7
:1000DC0008360036013602360E2A0E50036414EF31
:1000EC0001F0035E0BBC08AE19EF01F0D880800E56
:1000FC0008640030000E002201220222D8A019EF61
:10010C0001F0023201320032034A1EEF01F019EF06
:10011C0001F001C002F000C001F008C000F0086A54
:10012C00000E0E860264C6EF00F0F00E0214D8A486
:10013C00AEEF00F0023A01380F0B02260138F00B3B
:10014C00016E00380F0B01260038F00B006E0E8488
:10015C00D89002BE73EF00F00036013602360E2A3C
:10016C0002BE73EF00F00036013602360E2A02BED4
:10017C0073EF00F00036013602360E2A73EF00F0F2
:10018C0001C002F000C001F0006A000E0E960E884D
:10019C000264F3EF00F0F00E0214D8A4DEEF00F0CE
:1001AC00023A01380F0B02260138F00B016E0E8457
:1001BC00D89002BE73EF00F0013602360E2A02BE52
:1001CC0073EF00F0013602360E2A02BE73EF00F018
:1001DC00013602360E2A73EF00F001C002F0016AFC
:1001EC00000E0E86026423EF01F0F00E0214D8A468
:1001FC0002EF01F0023A0E84D89002BE73EF00F0C9
:10020C0002360E2A02BE73EF00F002360E2A02BE30
:10021C0073EF00F002360E2A73EF00F0010E0C6E35
:10022C00FBDE26EF01F0020E0C6EF2DE26EF01F083
:10023C00040E0C6EFEDE26EF01F0080E0C6E05DFD0
:02024C0012009E
:10024E000450000A12E10550000A0FE10650000AA0
:10025E000CE10750000A09E1FF0E006EFF0E016E61
:10026E007F0E026EFF0E036EA4D0086A096A075055
:10027E00D8B4D2EF01F00350D8B4D6EF01F002504B
:10028E0006180A6E028E068E0E6A02C008F001C0B3
:10029E000CF000C00DF004500D5E0550D8A0053CCA
:1002AE000C5E0650D8A0063C085E086A0C6A0D6A01
:1002BE00D8A069EF01F0D890023201320032083234
:1002CE00010E0E6E0750035ED8A076EF01F07E0E83
:1002DE000E240326D8B0DAEF01F07CEF01F07E0E8B
:1002EE000E240326D8A0DEEF01F0180E0B6E0D368D
:1002FE000C3608360036013602360E360450005ED5
:10030E000550D8A0053C015E0650D8A0063C025E02
:10031E0006340E120EA097EF01F00D80A2EF01F041
:10032E00045000260550D8B0053C01260650D8B022
:10033E00062802260D900B2E7EEF01F0C8EF01F07D
:10034E00D8900036013602360E360450005E055047
:10035E00D8A0053C015E0650D8A0063C025E0634CD
:10036E000E10010B0D26D8B00C2AD8B4082AD8A42A
:10037E00C8EF01F008320C320D32032AD8B4DAEF8E
:10038E0001F00AAE089E0850026E0C50016E0D5020
:10039E00006EE0EF01F0010E5EDEE0EF01F0020E06
:1003AE0053DEE0EF01F0040E43DEE0EF01F0080E45
:0403BE0032DE120019
:1003C200025006180E6E086A096A0B6A0350076427
:1003D200D4EF02F006500A6E068E028E03500B6EA8
:1003E2000750036E000E0B6424EF02F00B50075E01
:1003F200D8B4C5EF02F0070E076493EF02F0075E70
:1004020000C008F001C000F002C001F0026A074E0D
:10041200C5EF02F0076468EF02F0075E00C008F063
:1004220001C000F0016A074EC5EF02F0076446EF13
:1004320002F0075E00C008F0006A074EC5EF02F046
:1004420007642DEF02F00AC002F005C001F004C0FB
:1004520000F0086AEEEF03F0030E076438EF02F0D3
:10046200075E08380F0B086E074EC5EF02F0D890F2
:100472000832074EC5EF02F0D8900832074EC5EF9A
:1004820002F0D8900832C5EF02F0030E076457EF6E
:1004920002F0075E08380F0B086E0038F00B0826D2
:1004A20000380F0B006E074EC5EF02F0D8900032F5
:1004B2000832074EC5EF02F0D89000320832074EDC
:1004C200C5EF02F0D89000320832C5EF02F0030EF9
:1004D20007647FEF02F0075E08380F0B086E0038E2
:1004E200F00B082600380F0B006E0138F00B0026C7
:1004F20001380F0B016E074EC5EF02F0D8900132A2
:1005020000320832074EC5EF02F0D89001320032B5
:100512000832074EC5EF02F0D8900132003208329D
:10052200C5EF02F0030E0764B0EF02F0075E083871
:100532000F0B086E0038F00B082600380F0B006E08
:100542000138F00B002601380F0B016E0238F00B58
:10055200012602380F0B026E074EC5EF02F0D8904B
:100562000232013200320832074EC5EF02F0D89053
:100572000232013200320832074EC5EF02F0D89043
:100582000232013200320832096A000E0EAEB9EFB1
:1005920003F0081E001E011E021E082A002201226C
:1005A2000222B9EF03F00750D8A4DAEF02F0EEEF1F
:1005B20003F0096A02C00AF0028E068E0750035C3D
:1005C200076ED8B4ACEF03F0070E07647AEF03F0BE
:1005D200075E0450096E0550046E0650056E066AE9
:1005E200074EACEF03F0070E07644FEF03F0075E10
:1005F2000450096E0550046E056A074EACEF03F015
:10060200070E07642DEF03F0075E0450096E046ABB
:10061200074EACEF03F0070E076414EF03F00AC0B5
:1006220002F0EEEF03F0030E07641FEF03F0075E24
:1006320009380F0B096E074EACEF03F0D890093260
:10064200074EACEF03F0D8900932074EACEF03F03F
:10065200D8900932ACEF03F0030E07643EEF03F0CB
:10066200075E09380F0B096E0438F00B09260438AF
:100672000F0B046E074EACEF03F0D8900432093230
:10068200074EACEF03F0D89004320932074EACEFBC
:1006920003F0D89004320932ACEF03F0030E076482
:1006A20066EF03F0075E09380F0B096E0438F00B92
:1006B200092604380F0B046E0538F00B04260538A2
:1006C2000F0B056E074EACEF03F0D89005320432E3
:1006D2000932074EACEF03F0D890053204320932EA
:1006E200074EACEF03F0D890053204320932ACEF7A
:1006F20003F0030E076497EF03F0075E09380F0B50
:10070200096E0438F00B092604380F0B046E053805
:10071200F00B042605380F0B056E0638F00B052684
:1007220006380F0B066E074EACEF03F0D890063278
:10073200053204320932074EACEF03F0D89006328C
:10074200053204320932074EACEF03F0D89006327C
:10075200053204320932086A000E0EAEB9EF03F018
:10076200091E041E051E061E092A0422052206224F
:100772000950082604500022055001220650022288
:100782000EBED0EF03F0D8A0DFEF03F00232013249
:1007920000320832033EDFEF03F0E9EF03F0D8B096
:1007A200E4EF03F0000E081E001E011E021E082ABE
:1007B2000022012202220A7EE4EF03F0010E0C6EF7
:1007C20054DCF0EF03F0020E0C6E4FDCF0EF03F09E
:1007D200040E0C6E33DCF0EF03F0000E0C6E120010
:1007E2000C6A0E6A0250D8A40AEF04F001C002F0AB
:1007F20000C001F0006A0E860250D8A40AEF04F08D
:1008020001C002F0016A0E960E880250D8B41CEFA5
:1008120004F00E50035ED8A4D8A021EF04F0D890C3
:1008220002BE27EF04F0003601360236032E11EF26
:1008320004F021EF04F0010E0C6E0CDC2BEF04F03F
:10084200020E0C6E12EC00F02BEF04F0040E0C6E94
:060852000EEC00F01200A4
:0A085800FF0E926E936A816A12008F
:10086200010EC26E0E0EC16EA60EC06EC46AC36ABF
:02087200120072
:100874000900F5CFE6FF0006FBE10106F9E11200ED
:10088400CD0E046ECC0E056E4C0E066E860E076EF3
:1008940019C000F01AC001F01BC002F01CC003F024
:1008A400D4DC00C019F001C01AF002C01BF003C070
:1008B4001CF0330E046E330E056E730E066E7D0E41
:1008C400076E7DDD00C019F001C01AF002C01BF0F4
:1008D40003C01CF0EC0E046E510E056E380E066E4D
:1008E4007A0E076EB2DC00C019F001C01AF002C023
:0808F4001BF003C01CF0120010
:1008FC000A6A0350D8A40A800750D8A40A820A5066
:10090C00D8B4E1EF04F0030AD8B49AEF04F00AB0BB
:10091C0095EF04F006AEDFEF04F0DDEF04F002AE6D
:10092C00DDEF04F0DFEF04F00250800B0A6E029E44
:10093C000650800B069E0A18D8B4ABEF04F00A5090
:10094C00D8B4DDEF04F0DFEF04F00750035CD8B44B
:10095C00B5EF04F0D8A0D1EF04F0D7EF04F00650B7
:10096C00025CD8B4BFEF04F0D8A0D1EF04F0D7EFFD
:10097C0004F00550015CD8B4C9EF04F0D8A0D1EF55
:10098C0004F0D7EF04F00450005CD8B4E1EF04F0AD
:10099C00D8B0D7EF04F00A52D8B4DFEF04F0DDEF93
:1009AC0004F00A52D8B4DDEF04F0DFEF04F0D88085
:0E09BC001200D8901200D880D88412001200C9
:1009CA0000C008F00150006E016A026A036A0B6AED
:1009DA000C6A016A026A036A960E036E0A6A00AE1C
:1009EA00FDEF04F0081E001E082AD8B4002A0A8E59
:1009FA0000C001F008C000F0086A026AEDDE1200C9
:100A0A00156A166A176A186A27DF21DFC282C2A22C
:100A1A0001D0FDD7C4CF01F0006AC3500012000E06
:100A2A000112CEDF00C019F001C01AF002C01BF09B
:100A3A0003C01CF022DF00C015F001C016F002C08E
:100A4A0017F003C018F000C004F001C005F002C09E
:100A5A0006F003C007F0006A016A026A036A49DF06
:100A6A00010ED8B0000E006E00521AE0000E046E9D
:100A7A00000E056E200E066E810E076E15C000F080
:100A8A0016C001F017C002F018C003F032DF010EE1
:100A9A00D8B0000E006E005203E0800E8A6E3FD17D
:100AAA00000E046E000E056E200E066E810E076E95
:100ABA0015C000F016C001F017C002F018C003F00C
:100ACA0018DF000ED8B0010E006E00521AE0000EB8
:100ADA00046E000E056E200E066E820E076E15C09D
:100AEA0000F016C001F017C002F018C003F001DFD1
:100AFA00010ED8B0000E006E005203E0C00E8A6EDE
:100B0A000ED1000E046E000E056E700E066E820E79
:100B1A00076E15C000F016C001F017C002F018C029
:100B2A0003F0E7DE000ED8B0010E006E00521AE0A4
:100B3A00000E046E000E056E200E066E830E076E02
:100B4A0015C000F016C001F017C002F018C003F07B
:100B5A00D0DE010ED8B0000E006E005203E0E00EA7
:100B6A008A6EDDD0000E046E000E056E480E066E0B
:100B7A00830E076E15C000F016C001F017C002F010
:100B8A0018C003F0B6DE000ED8B0010E006E005297
:100B9A001AE0000E046E000E056E700E066E830ECD
:100BAA00076E15C000F016C001F017C002F018C099
:100BBA0003F09FDE010ED8B0000E006E005203E073
:100BCA00F00E8A6EACD0000E046E000E056E0C0E8E
:100BDA00066E840E076E15C000F016C001F017C02D
:100BEA0002F018C003F085DE000ED8B0010E006EC8
:100BFA0000521AE0000E046E000E056E200E066EFC
:100C0A00840E076E15C000F016C001F017C002F07E
:100C1A0018C003F06EDE010ED8B0000E006E00524E
:100C2A0003E0F80E8A6E7BD0000E046E000E056E8D
:100C3A00340E066E840E076E15C000F016C001F061
:100C4A0017C002F018C003F054DE000ED8B0010E2F
:100C5A00006E00521AE0000E046E000E056E480E79
:100C6A00066E840E076E15C000F016C001F017C09C
:100C7A0002F018C003F03DDE010ED8B0000E006E7F
:100C8A00005203E0FC0E8A6E4AD0000E046E000E7B
:100C9A00056E5C0E066E840E076E15C000F016C057
:100CAA0001F017C002F018C003F023DE000ED8B01E
:100CBA00010E006E00521AE0000E046E000E056E60
:100CCA00700E066E840E076E15C000F016C001F095
:100CDA0017C002F018C003F00CDE010ED8B0000EE7
:100CEA00006E005203E0FE0E8A6E19D0000E046EEA
:100CFA00000E056E020E066E850E076E15C000F018
:100D0A0016C001F017C002F018C003F0F2DD000EA1
:100D1A00D8B0010E006E005202E0FF0E8A6E76D63F
:020D2A00FFD7F1
:020000040030CA
:0E000000000C1F1EFF8381FF0FC00FE00F409A
:00000001FF
