:1000000011EF05F00000000000EF00F0000000001C
:0A0010000000000000000000F3D71C
:08001C000AAE029E000E120064
:100024000B840BAE1DEF00F0010E036E026A016A31
:0A003400006A0A360232FF0E1200C5
:10003E000B820BAE29EF00F00368026801680068BE
:08004E000A360232FF0E120017
:0E005600026A016A006A086A036A000E12005C
:100064000CB074EF00F00CA21AEF01F00E6A000E4F
:1000740002648BEF00F0F00E0214D8A456EF00F0E7
:10008400023A01380F0B02260138F00B016E0038DA
:100094000F0B01260038F00B006E08380F0B0026FA
:1000A4000838F00B086E0E84D89002BE6FEF00F093
:1000B40008360036013602360E2A02BE6FEF00F013
:1000C40008360036013602360E2A02BE6FEF00F003
:1000D40008360036013602360E2A0E50036410EF3D
:1000E40001F0035E0BBC08AE15EF01F0D880800E62
:1000F40008640030000E002201220222D8A015EF6D
:1001040001F0023201320032034A1AEF01F015EF16
:1001140001F001C002F000C001F008C000F0086A5C
:10012400000E0E860264C2EF00F0F00E0214D8A492
:10013400AAEF00F0023A01380F0B02260138F00B47
:10014400016E00380F0B01260038F00B006E0E8490
:10015400D89002BE6FEF00F00036013602360E2A48
:1001640002BE6FEF00F00036013602360E2A02BEE0
:100174006FEF00F00036013602360E2A6FEF00F002
:1001840001C002F000C001F0006A000E0E960E8855
:100194000264EFEF00F0F00E0214D8A4DAEF00F0DE
:1001A400023A01380F0B02260138F00B016E0E845F
:1001B400D89002BE6FEF00F0013602360E2A02BE5E
:1001C4006FEF00F0013602360E2A02BE6FEF00F028
:1001D400013602360E2A6FEF00F001C002F0016A08
:1001E400000E0E8602641FEF01F0F00E0214D8A474
:1001F400FEEF00F0023A0E84D89002BE6FEF00F0DA
:1002040002360E2A02BE6FEF00F002360E2A02BE3C
:100214006FEF00F002360E2A6FEF00F0010E0C6E45
:10022400FFDE22EF01F0020E0C6EF6DE22EF01F08B
:10023400040E0C6E02DF22EF01F0080E0C6E09DFD3
:020244001200A6
:080246000B6A0B86FF0E12008B
:10024E00025006180E6E086A096A0B6A035007649C
:10025E001AEF02F006500A6E068E028E03500B6ED7
:10026E000750036E000E0B646AEF01F00B50075E31
:10027E00D8B40BEF02F0070E0764D9EF01F0075E5A
:10028E0000C008F001C000F002C001F0026A074E83
:10029E000BEF02F00764AEEF01F0075E00C008F04E
:1002AE0001C000F0016A074E0BEF02F007648CEFFD
:1002BE0001F0075E00C008F0006A074E0BEF02F077
:1002CE00076473EF01F00AC002F005C001F004C02C
:1002DE0000F0086A34EF03F0030E07647EEF01F0BE
:1002EE00075E08380F0B086E074E0BEF02F0D89022
:1002FE000832074E0BEF02F0D8900832074E0BEF84
:10030E0002F0D89008320BEF02F0030E07649DEF57
:10031E0001F0075E08380F0B086E0038F00B082648
:10032E0000380F0B006E074E0BEF02F0D890003224
:10033E000832074E0BEF02F0D89000320832074E0B
:10034E000BEF02F0D890003208320BEF02F0030EE2
:10035E000764C5EF01F0075E08380F0B086E003812
:10036E00F00B082600380F0B006E0138F00B00263C
:10037E0001380F0B016E074E0BEF02F0D8900132D1
:10038E0000320832074E0BEF02F0D89001320032E5
:10039E000832074E0BEF02F0D890013200320832CD
:1003AE000BEF02F0030E0764F6EF01F0075E08385C
:1003BE000F0B086E0038F00B082600380F0B006E7E
:1003CE000138F00B002601380F0B016E0238F00BCE
:1003DE00012602380F0B026E074E0BEF02F0D8907B
:1003EE000232013200320832074E0BEF02F0D89083
:1003FE000232013200320832074E0BEF02F0D89073
:10040E000232013200320832096A000E0EAEFFEFE0
:10041E0002F0081E001E011E021E082A00220122E2
:10042E000222FFEF02F00750D8A420EF02F034EFC3
:10043E0003F0096A02C00AF0028E068E0750035CB2
:10044E00076ED8B4F2EF02F0070E0764C0EF02F0A9
:10045E00075E0450096E0550046E0650056E066A5E
:10046E00074EF2EF02F0070E076495EF02F0075EFB
:10047E000450096E0550046E056A074EF2EF02F045
:10048E00070E076473EF02F0075E0450096E046AEC
:10049E00074EF2EF02F0070E07645AEF02F00AC0A1
:1004AE0002F034EF03F0030E076465EF02F0075E0F
:1004BE0009380F0B096E074EF2EF02F0D890093291
:1004CE00074EF2EF02F0D8900932074EF2EF02F02B
:1004DE00D8900932F2EF02F0030E076484EF02F0B7
:1004EE00075E09380F0B096E0438F00B0926043825
:1004FE000F0B046E074EF2EF02F0D8900432093261
:10050E00074EF2EF02F0D89004320932074EF2EFA6
:10051E0002F0D89004320932F2EF02F0030E0764B3
:10052E00ACEF02F0075E09380F0B096E0438F00BC2
:10053E00092604380F0B046E0538F00B0426053817
:10054E000F0B056E074EF2EF02F0D8900532043213
:10055E000932074EF2EF02F0D8900532043209321A
:10056E00074EF2EF02F0D890053204320932F2EF64
:10057E0002F0030E0764DDEF02F0075E09380F0B81
:10058E00096E0438F00B092604380F0B046E05387B
:10059E00F00B042605380F0B056E0638F00B0526FA
:1005AE0006380F0B066E074EF2EF02F0D8900632A9
:1005BE00053204320932074EF2EF02F0D8900632BD
:1005CE00053204320932074EF2EF02F0D8900632AD
:1005DE00053204320932086A000E0EAEFFEF02F049
:1005EE00091E041E051E061E092A042205220622C5
:1005FE0009500826045000220550012206500222FE
:10060E000EBE16EF03F0D8A025EF03F00232013232
:10061E0000320832033E25EF03F02FEF03F0D8B07F
:10062E002AEF03F0000E081E001E011E021E082AED
:10063E000022012202220A7E2AEF03F0010E0C6E26
:10064E000ADD36EF03F0020E0C6E05DD36EF03F019
:10065E00040E0C6EEDDC36EF03F0000E0C6E120085
:06066E00067EEEDD120025
:100674000C6A0E6A0250D8A453EF03F001C002F0D2
:1006840000C001F0006A0E860250D8A453EF03F0B4
:1006940001C002F0016A0E960E880250D8B465EFCC
:1006A40003F00E50035ED8A4D8A06AEF03F0D890EC
:1006B40002BE6FEF03F0003601360236032E5AEF06
:1006C40003F06AEF03F0010E0C6EC3DC72EF03F06B
:1006D400020E0C6EA5DC72EF03F0040E0C6E9CDCB3
:0206E400120002
:1006E6000450000A12E10550000A0FE10650000A04
:1006F6000CE10750000A09E1FF0E006EFF0E016EC5
:100706007F0E026EFF0E036EA6D0086A096A0750B6
:10071600D8B41EEF04F00350D8B422EF04F0025010
:1007260006180A6E028E068E0E6A02C008F001C016
:100736000CF000C00DF004500D5E0550D8A0053C2D
:100746000C5E0650D8A0063C085E086A0C6A0D6A64
:10075600D8A0B5EF03F0D890023201320032083249
:10076600010E0E6E0750035ED8A0C2EF03F07E0E98
:100776000E240326D8B026EF04F0C8EF03F07E0E51
:100786000E240326D8A02BEF04F0180E0B6E0D36A0
:100796000C3608360036013602360E360450005E38
:1007A6000550D8A0053C015E0650D8A0063C025E66
:1007B60006340E120EA0E3EF03F00D80EEEF03F009
:1007C600045000260550D8B0053C01260650D8B086
:1007D600062802260D900B2ECAEF03F014EF04F044
:1007E600D8900036013602360E360450005E0550AB
:1007F600D8A0053C015E0650D8A0063C025E063431
:100806000E10010B0D26D8B00C2AD8B4082AD8A48D
:1008160014EF04F008320C320D32032AD8B426EF56
:1008260004F00AAE089E0850026E0C50016E0D5080
:10083600006E2EEF04F0010E03DD2EEF04F0020E23
:1008460007DC2EEF04F0040E1FEC00F02EEF04F090
:08085600080E12EC00F0120084
:0A085E00FF0E926E936A816A120089
:100868000900F5CFE6FF0006FBE10106F9E11200F9
:10087800010EC26E0E0EC16EA60EC06EC46AC36AA9
:0208880012005C
:10088A000A6A0350D8A40A800750D8A40A820A50D8
:10089A00D8B4A8EF04F0030AD8B461EF04F00AB0A0
:1008AA005CEF04F006AEA6EF04F0A4EF04F002AE8B
:1008BA00A4EF04F0A6EF04F00250800B0A6E029E29
:1008CA000650800B069E0A18D8B472EF04F00A503C
:1008DA00D8B4A4EF04F0A6EF04F00750035CD8B430
:1008EA007CEF04F0D8A098EF04F09EEF04F00650D5
:1008FA00025CD8B486EF04F0D8A098EF04F09EEF1B
:10090A0004F00550015CD8B490EF04F0D8A098EF39
:10091A0004F09EEF04F00450005CD8B4A8EF04F091
:10092A00D8B09EEF04F00A52D8B4A6EF04F0A4EFB0
:10093A0004F00A52D8B4A4EF04F0A6EF04F0D88069
:0E094A001200D8901200D880D884120012003B
:10095800CD0E046ECC0E056E4C0E066E860E076E1E
:1009680019C000F01AC001F01BC002F01CC003F04F
:10097800B6DE00C019F001C01AF002C01BF003C0B7
:100988001CF0330E046E330E056E730E066E7D0E6C
:10099800076E59DC00C019F001C01AF002C01BF044
:1009A80003C01CF0A30E046E010E056E3C0E066E0D
:1009B8007A0E076E94DE00C019F001C01AF002C06A
:1009C8001BF003C01CF0000E046E000E056E400EF6
:0A09D800066E7F0E076E47DE120068
:1009E20000C008F00150006E016A026A036A0B6AD5
:1009F2000C6A016A026A036A960E036E0A6A00AE04
:100A020009EF05F0081E001E082AD8B4002A0A8E33
:100A120000C001F008C000F0086A026A2ADE120073
:100A2200156A166A176A186A26DF18DFC282C2A21E
:100A320001D0FDD7C4CF01F0006AC3500026000EDA
:100A42000122CEDF00C019F001C01AF002C01BF073
:100A520003C01CF080DF00C015F001C016F002C018
:100A620017F003C018F000C004F001C005F002C086
:100A720006F003C007F0000E006E000E016E200E9D
:100A8200026E830E036E00DF010ED8B0000E006E00
:100A920000521AE0000E046E000E056E700E066E15
:100AA200830E076E15C000F016C001F017C002F0E9
:100AB20018C003F0E9DE010ED8B0000E006E00523D
:100AC20003E0800E8A6E41D1000E046E000E056EA8
:100AD200700E066E830E076E15C000F016C001F090
:100AE20017C002F018C003F0CFDE000ED8B0010E1E
:100AF200006E00521AE0000E046E000E056E200E0B
:100B0200066E840E076E15C000F016C001F017C005
:100B120002F018C003F0B8DE010ED8B0000E006E6D
:100B2200005203E0C00E8A6E10D1000E046E000E59
:100B3200056E200E066E840E076E15C000F016C0FC
:100B420001F017C002F018C003F09EDE000ED8B00C
:100B5200010E006E00521AE0000E046E000E056EC9
:100B6200480E066E840E076E15C000F016C001F026
:100B720017C002F018C003F087DE010ED8B0000ED5
:100B8200006E005203E0E00E8A6EDFD0000E046EAB
:100B9200000E056E480E066E840E076E15C000F03C
:100BA20016C001F017C002F018C003F06DDE000E8F
:100BB200D8B0010E006E00521AE0000E046E000E54
:100BC200056E700E066E840E076E15C000F016C01C
:100BD20001F017C002F018C003F056DE010ED8B0C3
:100BE200000E006E005203E0F00E8A6EAED0000ED0
:100BF200046E000E056E700E066E840E076E15C032
:100C020000F016C001F017C002F018C003F03CDE7D
:100C1200000ED8B0010E006E00521AE0000E046EF3
:100C2200000E056E0C0E066E850E076E15C000F0E6
:100C320016C001F017C002F018C003F025DE010E45
:100C4200D8B0000E006E005203E0F80E8A6E7DD01E
:100C5200000E046E000E056E0C0E066E850E076EFB
:100C620015C000F016C001F017C002F018C003F062
:100C72000BDE000ED8B0010E006E00521AE0000E1C
:100C8200046E000E056E200E066E850E076E15C0F0
:100C920000F016C001F017C002F018C003F0F4DD36
:100CA200010ED8B0000E006E005203E0FC0E8A6EF8
:100CB2004CD0000E046E000E056E200E066E850EE0
:100CC200076E15C000F016C001F017C002F018C080
:100CD20003F0DADD000ED8B0010E006E00521AE009
:100CE200000E046E000E056E340E066E850E076E43
:100CF20015C000F016C001F017C002F018C003F0D2
:100D0200C3DD010ED8B0000E006E005203E0FE0EED
:100D12008A6E1BD0000E046E000E056E340E066E37
:100D2200850E076E15C000F016C001F017C002F064
:100D320018C003F0A9DD000ED8B0010E006E0052FB
:0E0D420003E0FF0E8A6E01D08A6A70D6FFD7DA
:020000040030CA
:0E000000000C1F1EFF8381FF0FC00FE00F409A
:00000001FF
